{
  "_format": "hh-sol-artifact-1",
  "contractName": "Marketplace",
  "sourceName": "src/backend/contracts/Marketplace.sol",
  "abi": [
    {
      "inputs": [
        {
          "internalType": "uint256",
          "name": "_feePercent",
          "type": "uint256"
        }
      ],
      "stateMutability": "nonpayable",
      "type": "constructor"
    },
    {
      "anonymous": false,
      "inputs": [
        {
          "indexed": false,
          "internalType": "uint256",
          "name": "itemId",
          "type": "uint256"
        },
        {
          "indexed": true,
          "internalType": "address",
          "name": "nft",
          "type": "address"
        },
        {
          "indexed": false,
          "internalType": "uint256",
          "name": "tokenId",
          "type": "uint256"
        },
        {
          "indexed": false,
          "internalType": "uint256",
          "name": "percent",
          "type": "uint256"
        },
        {
          "indexed": true,
          "internalType": "address",
          "name": "seller",
          "type": "address"
        },
        {
          "indexed": true,
          "internalType": "address",
          "name": "buyer",
          "type": "address"
        }
      ],
      "name": "Bought",
      "type": "event"
    },
    {
      "anonymous": false,
      "inputs": [
        {
          "indexed": false,
          "internalType": "uint256",
          "name": "itemId",
          "type": "uint256"
        },
        {
          "indexed": true,
          "internalType": "address",
          "name": "nft",
          "type": "address"
        },
        {
          "indexed": false,
          "internalType": "uint256",
          "name": "tokenId",
          "type": "uint256"
        },
        {
          "indexed": false,
          "internalType": "uint256",
          "name": "price",
          "type": "uint256"
        },
        {
          "indexed": true,
          "internalType": "address",
          "name": "seller",
          "type": "address"
        }
      ],
      "name": "Offered",
      "type": "event"
    },
    {
      "inputs": [
        {
          "internalType": "uint256",
          "name": "_itemId",
          "type": "uint256"
        }
      ],
      "name": "approveItem",
      "outputs": [],
      "stateMutability": "nonpayable",
      "type": "function"
    },
    {
      "inputs": [],
      "name": "feeAccount",
      "outputs": [
        {
          "internalType": "address payable",
          "name": "",
          "type": "address"
        }
      ],
      "stateMutability": "view",
      "type": "function"
    },
    {
      "inputs": [],
      "name": "feePercent",
      "outputs": [
        {
          "internalType": "uint256",
          "name": "",
          "type": "uint256"
        }
      ],
      "stateMutability": "view",
      "type": "function"
    },
    {
      "inputs": [
        {
          "internalType": "uint256",
          "name": "_itemId",
          "type": "uint256"
        }
      ],
      "name": "getTotalPrice",
      "outputs": [
        {
          "internalType": "uint256",
          "name": "",
          "type": "uint256"
        }
      ],
      "stateMutability": "view",
      "type": "function"
    },
    {
      "inputs": [],
      "name": "itemCount",
      "outputs": [
        {
          "internalType": "uint256",
          "name": "",
          "type": "uint256"
        }
      ],
      "stateMutability": "view",
      "type": "function"
    },
    {
      "inputs": [
        {
          "internalType": "uint256",
          "name": "",
          "type": "uint256"
        }
      ],
      "name": "items",
      "outputs": [
        {
          "internalType": "uint256",
          "name": "itemId",
          "type": "uint256"
        },
        {
          "internalType": "uint256",
          "name": "percentRemaining",
          "type": "uint256"
        },
        {
          "internalType": "contract IERC721",
          "name": "nft",
          "type": "address"
        },
        {
          "internalType": "uint256",
          "name": "tokenId",
          "type": "uint256"
        },
        {
          "internalType": "uint256",
          "name": "price",
          "type": "uint256"
        },
        {
          "internalType": "address payable",
          "name": "seller",
          "type": "address"
        },
        {
          "internalType": "bool",
          "name": "sold",
          "type": "bool"
        },
        {
          "internalType": "bool",
          "name": "approved",
          "type": "bool"
        },
        {
          "internalType": "bool",
          "name": "banned",
          "type": "bool"
        }
      ],
      "stateMutability": "view",
      "type": "function"
    },
    {
      "inputs": [
        {
          "internalType": "contract IERC721",
          "name": "_nft",
          "type": "address"
        },
        {
          "internalType": "uint256",
          "name": "_tokenId",
          "type": "uint256"
        },
        {
          "internalType": "uint256",
          "name": "_price",
          "type": "uint256"
        }
      ],
      "name": "makeItem",
      "outputs": [],
      "stateMutability": "nonpayable",
      "type": "function"
    },
    {
      "inputs": [
        {
          "internalType": "uint256",
          "name": "",
          "type": "uint256"
        },
        {
          "internalType": "address",
          "name": "",
          "type": "address"
        }
      ],
      "name": "owners",
      "outputs": [
        {
          "internalType": "uint256",
          "name": "",
          "type": "uint256"
        }
      ],
      "stateMutability": "view",
      "type": "function"
    },
    {
      "inputs": [
        {
          "internalType": "uint256",
          "name": "_itemId",
          "type": "uint256"
        }
      ],
      "name": "purchaseItem",
      "outputs": [],
      "stateMutability": "payable",
      "type": "function"
    },
    {
      "inputs": [
        {
          "internalType": "uint256",
          "name": "_itemId",
          "type": "uint256"
        }
      ],
      "name": "setBanned",
      "outputs": [],
      "stateMutability": "nonpayable",
      "type": "function"
    }
  ],
  "bytecode": "0x60c06040523480156200001157600080fd5b50604051620016373803806200163783398181016040528101906200003791906200009c565b60016000819055503373ffffffffffffffffffffffffffffffffffffffff1660808173ffffffffffffffffffffffffffffffffffffffff1660601b815250508060a0818152505050620000ec565b6000815190506200009681620000d2565b92915050565b600060208284031215620000af57600080fd5b6000620000bf8482850162000085565b91505092915050565b6000819050919050565b620000dd81620000c8565b8114620000e957600080fd5b50565b60805160601c60a0516115146200012360003960008181610399015261047601526000818161036f015261077701526115146000f3fe6080604052600436106100915760003560e01c8063bfb231d211610059578063bfb231d21461017d578063ca7dd375146101c2578063d283c850146101ff578063d38ea5bf14610228578063fa00afc71461024457610091565b806316a5c632146100965780635e104def146100bf57806365e17c9d146100fc5780636bfb0d01146101275780637fd6f15c14610152575b600080fd5b3480156100a257600080fd5b506100bd60048036038101906100b89190610d41565b61026d565b005b3480156100cb57600080fd5b506100e660048036038101906100e19190610d6a565b610348565b6040516100f39190611018565b60405180910390f35b34801561010857600080fd5b5061011161036d565b60405161011e9190610ee6565b60405180910390f35b34801561013357600080fd5b5061013c610391565b6040516101499190611018565b60405180910390f35b34801561015e57600080fd5b50610167610397565b6040516101749190611018565b60405180910390f35b34801561018957600080fd5b506101a4600480360381019061019f9190610d41565b6103bb565b6040516101b999989796959493929190611033565b60405180910390f35b3480156101ce57600080fd5b506101e960048036038101906101e49190610d41565b610470565b6040516101f69190611018565b60405180910390f35b34801561020b57600080fd5b5061022660048036038101906102219190610d41565b6104d3565b005b610242600480360381019061023d9190610d41565b6105ae565b005b34801561025057600080fd5b5061026b60048036038101906102669190610cf2565b61097c565b005b600060026000838152602001908152602001600020905060008211801561029657506001548211155b6102d5576040517f08c379a00000000000000000000000000000000000000000000000000000000081526004016102cc90610fb8565b60405180910390fd5b8060050160169054906101000a900460ff1615610327576040517f08c379a000000000000000000000000000000000000000000000000000000000815260040161031e90610f78565b60405180910390fd5b60018160050160166101000a81548160ff0219169083151502179055505050565b6003602052816000526040600020602052806000526040600020600091509150505481565b7f000000000000000000000000000000000000000000000000000000000000000081565b60015481565b7f000000000000000000000000000000000000000000000000000000000000000081565b60026020528060005260406000206000915090508060000154908060010154908060020160009054906101000a900473ffffffffffffffffffffffffffffffffffffffff16908060030154908060040154908060050160009054906101000a900473ffffffffffffffffffffffffffffffffffffffff16908060050160149054906101000a900460ff16908060050160159054906101000a900460ff16908060050160169054906101000a900460ff16905089565b600060647f000000000000000000000000000000000000000000000000000000000000000060646104a19190611108565b60026000858152602001908152602001600020600401546104c2919061118f565b6104cc919061115e565b9050919050565b60006002600083815260200190815260200160002090506000821180156104fc57506001548211155b61053b576040517f08c379a000000000000000000000000000000000000000000000000000000000815260040161053290610fb8565b60405180910390fd5b8060050160159054906101000a900460ff161561058d576040517f08c379a000000000000000000000000000000000000000000000000000000000815260040161058490610fd8565b60405180910390fd5b60018160050160156101000a81548160ff0219169083151502179055505050565b600260005414156105f4576040517f08c379a00000000000000000000000000000000000000000000000000000000081526004016105eb90610ff8565b60405180910390fd5b6002600081905550600061060782610470565b9050600060026000848152602001908152602001600020905060008311801561063257506001548311155b610671576040517f08c379a000000000000000000000000000000000000000000000000000000000815260040161066890610fb8565b60405180910390fd5b813410156106b4576040517f08c379a00000000000000000000000000000000000000000000000000000000081526004016106ab90610f98565b60405180910390fd5b8060050160149054906101000a900460ff1615610706576040517f08c379a00000000000000000000000000000000000000000000000000000000081526004016106fd90610f38565b60405180910390fd5b8060050160009054906101000a900473ffffffffffffffffffffffffffffffffffffffff1673ffffffffffffffffffffffffffffffffffffffff166108fc82600401549081150290604051600060405180830381858888f19350505050158015610774573d6000803e3d6000fd5b507f000000000000000000000000000000000000000000000000000000000000000073ffffffffffffffffffffffffffffffffffffffff166108fc8260040154846107bf91906111e9565b9081150290604051600060405180830381858888f193505050501580156107ea573d6000803e3d6000fd5b5060018160050160146101000a81548160ff0219169083151502179055508060020160009054906101000a900473ffffffffffffffffffffffffffffffffffffffff1673ffffffffffffffffffffffffffffffffffffffff166323b872dd303384600301546040518463ffffffff1660e01b815260040161086d93929190610f01565b600060405180830381600087803b15801561088757600080fd5b505af115801561089b573d6000803e3d6000fd5b505050503373ffffffffffffffffffffffffffffffffffffffff168160050160009054906101000a900473ffffffffffffffffffffffffffffffffffffffff1673ffffffffffffffffffffffffffffffffffffffff168260020160009054906101000a900473ffffffffffffffffffffffffffffffffffffffff1673ffffffffffffffffffffffffffffffffffffffff167f8b4c9c8a607d67b321582dd8461041b1dc2ceeca70c8b7f37f8e02095cf2e76d8685600301548660040154604051610967939291906110c0565b60405180910390a45050600160008190555050565b600260005414156109c2576040517f08c379a00000000000000000000000000000000000000000000000000000000081526004016109b990610ff8565b60405180910390fd5b600260008190555060008111610a0d576040517f08c379a0000000000000000000000000000000000000000000000000000000008152600401610a0490610f58565b60405180910390fd5b60016000815480929190610a20906112ad565b91905055508273ffffffffffffffffffffffffffffffffffffffff166323b872dd3330856040518463ffffffff1660e01b8152600401610a6293929190610f01565b600060405180830381600087803b158015610a7c57600080fd5b505af1158015610a90573d6000803e3d6000fd5b505050506040518061012001604052806001548152602001606481526020018473ffffffffffffffffffffffffffffffffffffffff1681526020018381526020018281526020013373ffffffffffffffffffffffffffffffffffffffff16815260200160001515815260200160001515815260200160001515815250600260006001548152602001908152602001600020600082015181600001556020820151816001015560408201518160020160006101000a81548173ffffffffffffffffffffffffffffffffffffffff021916908373ffffffffffffffffffffffffffffffffffffffff160217905550606082015181600301556080820151816004015560a08201518160050160006101000a81548173ffffffffffffffffffffffffffffffffffffffff021916908373ffffffffffffffffffffffffffffffffffffffff16021790555060c08201518160050160146101000a81548160ff02191690831515021790555060e08201518160050160156101000a81548160ff0219169083151502179055506101008201518160050160166101000a81548160ff0219169083151502179055509050503373ffffffffffffffffffffffffffffffffffffffff168373ffffffffffffffffffffffffffffffffffffffff167f655a0cf9c8db81512be9a76dc1c5ae5380b8816ce6ad659cd61b715e2999d59a6001548585604051610c9e939291906110c0565b60405180910390a36001600081905550505050565b600081359050610cc281611499565b92915050565b600081359050610cd7816114b0565b92915050565b600081359050610cec816114c7565b92915050565b600080600060608486031215610d0757600080fd5b6000610d1586828701610cc8565b9350506020610d2686828701610cdd565b9250506040610d3786828701610cdd565b9150509250925092565b600060208284031215610d5357600080fd5b6000610d6184828501610cdd565b91505092915050565b60008060408385031215610d7d57600080fd5b6000610d8b85828601610cdd565b9250506020610d9c85828601610cb3565b9150509250929050565b610daf8161122f565b82525050565b610dbe8161121d565b82525050565b610dcd81611241565b82525050565b610ddc81611289565b82525050565b6000610def6011836110f7565b9150610dfa82611354565b602082019050919050565b6000610e12601f836110f7565b9150610e1d8261137d565b602082019050919050565b6000610e356016836110f7565b9150610e40826113a6565b602082019050919050565b6000610e586033836110f7565b9150610e63826113cf565b604082019050919050565b6000610e7b6012836110f7565b9150610e868261141e565b602082019050919050565b6000610e9e6018836110f7565b9150610ea982611447565b602082019050919050565b6000610ec1601f836110f7565b9150610ecc82611470565b602082019050919050565b610ee08161127f565b82525050565b6000602082019050610efb6000830184610da6565b92915050565b6000606082019050610f166000830186610db5565b610f236020830185610db5565b610f306040830184610ed7565b949350505050565b60006020820190508181036000830152610f5181610de2565b9050919050565b60006020820190508181036000830152610f7181610e05565b9050919050565b60006020820190508181036000830152610f9181610e28565b9050919050565b60006020820190508181036000830152610fb181610e4b565b9050919050565b60006020820190508181036000830152610fd181610e6e565b9050919050565b60006020820190508181036000830152610ff181610e91565b9050919050565b6000602082019050818103600083015261101181610eb4565b9050919050565b600060208201905061102d6000830184610ed7565b92915050565b600061012082019050611049600083018c610ed7565b611056602083018b610ed7565b611063604083018a610dd3565b6110706060830189610ed7565b61107d6080830188610ed7565b61108a60a0830187610da6565b61109760c0830186610dc4565b6110a460e0830185610dc4565b6110b2610100830184610dc4565b9a9950505050505050505050565b60006060820190506110d56000830186610ed7565b6110e26020830185610ed7565b6110ef6040830184610ed7565b949350505050565b600082825260208201905092915050565b60006111138261127f565b915061111e8361127f565b9250827fffffffffffffffffffffffffffffffffffffffffffffffffffffffffffffffff03821115611153576111526112f6565b5b828201905092915050565b60006111698261127f565b91506111748361127f565b92508261118457611183611325565b5b828204905092915050565b600061119a8261127f565b91506111a58361127f565b9250817fffffffffffffffffffffffffffffffffffffffffffffffffffffffffffffffff04831182151516156111de576111dd6112f6565b5b828202905092915050565b60006111f48261127f565b91506111ff8361127f565b925082821015611212576112116112f6565b5b828203905092915050565b60006112288261125f565b9050919050565b600061123a8261125f565b9050919050565b60008115159050919050565b60006112588261121d565b9050919050565b600073ffffffffffffffffffffffffffffffffffffffff82169050919050565b6000819050919050565b60006112948261129b565b9050919050565b60006112a68261125f565b9050919050565b60006112b88261127f565b91507fffffffffffffffffffffffffffffffffffffffffffffffffffffffffffffffff8214156112eb576112ea6112f6565b5b600182019050919050565b7f4e487b7100000000000000000000000000000000000000000000000000000000600052601160045260246000fd5b7f4e487b7100000000000000000000000000000000000000000000000000000000600052601260045260246000fd5b7f6974656d20616c726561647920736f6c64000000000000000000000000000000600082015250565b7f5072696365206d7573742062652067726561746572207468616e207a65726f00600082015250565b7f6974656d20697320616c72656164792062616e6e656400000000000000000000600082015250565b7f6e6f7420656e6f75676820657468657220746f20636f766572206974656d207060008201527f7269636520616e64206d61726b65742066656500000000000000000000000000602082015250565b7f6974656d20646f65736e27742065786973740000000000000000000000000000600082015250565b7f6974656d20697320616c726561647920617070726f7665640000000000000000600082015250565b7f5265656e7472616e637947756172643a207265656e7472616e742063616c6c00600082015250565b6114a28161121d565b81146114ad57600080fd5b50565b6114b98161124d565b81146114c457600080fd5b50565b6114d08161127f565b81146114db57600080fd5b5056fea264697066735822122014df9416b6a9563af5e0dd778c38e17e9c676a082b40595e68a3c38ced95624064736f6c63430008040033",
  "linkReferences": {},
  "deployedLinkReferences": {}
}