{
  "_format": "hh-sol-artifact-1",
  "contractName": "Marketplace",
  "sourceName": "src/backend/contracts/Marketplace.sol",
  "abi": [
    {
      "inputs": [
        {
          "internalType": "uint256",
          "name": "_feePercent",
          "type": "uint256"
        }
      ],
      "stateMutability": "nonpayable",
      "type": "constructor"
    },
    {
      "anonymous": false,
      "inputs": [
        {
          "indexed": false,
          "internalType": "uint256",
          "name": "itemId",
          "type": "uint256"
        },
        {
          "indexed": true,
          "internalType": "address",
          "name": "nft",
          "type": "address"
        },
        {
          "indexed": false,
          "internalType": "uint256",
          "name": "tokenId",
          "type": "uint256"
        },
        {
          "indexed": false,
          "internalType": "uint256",
          "name": "price",
          "type": "uint256"
        },
        {
          "indexed": true,
          "internalType": "address",
          "name": "seller",
          "type": "address"
        },
        {
          "indexed": true,
          "internalType": "address",
          "name": "buyer",
          "type": "address"
        }
      ],
      "name": "Bought",
      "type": "event"
    },
    {
      "anonymous": false,
      "inputs": [
        {
          "indexed": false,
          "internalType": "uint256",
          "name": "itemId",
          "type": "uint256"
        },
        {
          "indexed": true,
          "internalType": "address",
          "name": "nft",
          "type": "address"
        },
        {
          "indexed": false,
          "internalType": "uint256",
          "name": "tokenId",
          "type": "uint256"
        },
        {
          "indexed": false,
          "internalType": "uint256",
          "name": "price",
          "type": "uint256"
        },
        {
          "indexed": true,
          "internalType": "address",
          "name": "seller",
          "type": "address"
        }
      ],
      "name": "Offered",
      "type": "event"
    },
    {
      "inputs": [
        {
          "internalType": "uint256",
          "name": "_itemId",
          "type": "uint256"
        }
      ],
      "name": "approveItem",
      "outputs": [],
      "stateMutability": "nonpayable",
      "type": "function"
    },
    {
      "inputs": [],
      "name": "feeAccount",
      "outputs": [
        {
          "internalType": "address payable",
          "name": "",
          "type": "address"
        }
      ],
      "stateMutability": "view",
      "type": "function"
    },
    {
      "inputs": [],
      "name": "feePercent",
      "outputs": [
        {
          "internalType": "uint256",
          "name": "",
          "type": "uint256"
        }
      ],
      "stateMutability": "view",
      "type": "function"
    },
    {
      "inputs": [
        {
          "internalType": "uint256",
          "name": "_itemId",
          "type": "uint256"
        }
      ],
      "name": "getTotalPrice",
      "outputs": [
        {
          "internalType": "uint256",
          "name": "",
          "type": "uint256"
        }
      ],
      "stateMutability": "view",
      "type": "function"
    },
    {
      "inputs": [],
      "name": "itemCount",
      "outputs": [
        {
          "internalType": "uint256",
          "name": "",
          "type": "uint256"
        }
      ],
      "stateMutability": "view",
      "type": "function"
    },
    {
      "inputs": [
        {
          "internalType": "uint256",
          "name": "",
          "type": "uint256"
        }
      ],
      "name": "items",
      "outputs": [
        {
          "internalType": "uint256",
          "name": "itemId",
          "type": "uint256"
        },
        {
          "internalType": "uint256",
          "name": "percentRemaining",
          "type": "uint256"
        },
        {
          "internalType": "contract IERC721",
          "name": "nft",
          "type": "address"
        },
        {
          "internalType": "uint256",
          "name": "tokenId",
          "type": "uint256"
        },
        {
          "internalType": "uint256",
          "name": "price",
          "type": "uint256"
        },
        {
          "internalType": "address payable",
          "name": "seller",
          "type": "address"
        },
        {
          "internalType": "bool",
          "name": "sold",
          "type": "bool"
        },
        {
          "internalType": "bool",
          "name": "approved",
          "type": "bool"
        },
        {
          "internalType": "bool",
          "name": "banned",
          "type": "bool"
        }
      ],
      "stateMutability": "view",
      "type": "function"
    },
    {
      "inputs": [
        {
          "internalType": "contract IERC721",
          "name": "_nft",
          "type": "address"
        },
        {
          "internalType": "uint256",
          "name": "_tokenId",
          "type": "uint256"
        },
        {
          "internalType": "uint256",
          "name": "_price",
          "type": "uint256"
        }
      ],
      "name": "makeItem",
      "outputs": [],
      "stateMutability": "nonpayable",
      "type": "function"
    },
    {
      "inputs": [
        {
          "internalType": "uint256",
          "name": "",
          "type": "uint256"
        },
        {
          "internalType": "address",
          "name": "",
          "type": "address"
        }
      ],
      "name": "owners",
      "outputs": [
        {
          "internalType": "uint256",
          "name": "",
          "type": "uint256"
        }
      ],
      "stateMutability": "view",
      "type": "function"
    },
    {
      "inputs": [
        {
          "internalType": "uint256",
          "name": "_itemId",
          "type": "uint256"
        },
        {
          "internalType": "uint256",
          "name": "_percent",
          "type": "uint256"
        }
      ],
      "name": "purchaseItem",
      "outputs": [],
      "stateMutability": "payable",
      "type": "function"
    },
    {
      "inputs": [
        {
          "internalType": "uint256",
          "name": "_itemId",
          "type": "uint256"
        }
      ],
      "name": "setBanned",
      "outputs": [],
      "stateMutability": "nonpayable",
      "type": "function"
    }
  ],
  "bytecode": "0x60c06040523480156200001157600080fd5b506040516200158a3803806200158a83398181016040528101906200003791906200009c565b60016000819055503373ffffffffffffffffffffffffffffffffffffffff1660808173ffffffffffffffffffffffffffffffffffffffff1660601b815250508060a0818152505050620000ec565b6000815190506200009681620000d2565b92915050565b600060208284031215620000af57600080fd5b6000620000bf8482850162000085565b91505092915050565b6000819050919050565b620000dd81620000c8565b8114620000e957600080fd5b50565b60805160601c60a0516114676200012360003960008181610399015261047601526000818161036f015261081001526114676000f3fe6080604052600436106100915760003560e01c8063bfb231d211610059578063bfb231d21461017d578063ca7dd375146101c2578063d283c850146101ff578063e067569814610228578063fa00afc71461024457610091565b806316a5c632146100965780635e104def146100bf57806365e17c9d146100fc5780636bfb0d01146101275780637fd6f15c14610152575b600080fd5b3480156100a257600080fd5b506100bd60048036038101906100b89190610c58565b61026d565b005b3480156100cb57600080fd5b506100e660048036038101906100e19190610c81565b610348565b6040516100f39190610f6b565b60405180910390f35b34801561010857600080fd5b5061011161036d565b60405161011e9190610e39565b60405180910390f35b34801561013357600080fd5b5061013c610391565b6040516101499190610f6b565b60405180910390f35b34801561015e57600080fd5b50610167610397565b6040516101749190610f6b565b60405180910390f35b34801561018957600080fd5b506101a4600480360381019061019f9190610c58565b6103bb565b6040516101b999989796959493929190610f86565b60405180910390f35b3480156101ce57600080fd5b506101e960048036038101906101e49190610c58565b610470565b6040516101f69190610f6b565b60405180910390f35b34801561020b57600080fd5b5061022660048036038101906102219190610c58565b6104d3565b005b610242600480360381019061023d9190610cbd565b6105ae565b005b34801561025057600080fd5b5061026b60048036038101906102669190610c09565b610893565b005b600060026000838152602001908152602001600020905060008211801561029657506001548211155b6102d5576040517f08c379a00000000000000000000000000000000000000000000000000000000081526004016102cc90610f0b565b60405180910390fd5b8060050160169054906101000a900460ff1615610327576040517f08c379a000000000000000000000000000000000000000000000000000000000815260040161031e90610ecb565b60405180910390fd5b60018160050160166101000a81548160ff0219169083151502179055505050565b6003602052816000526040600020602052806000526040600020600091509150505481565b7f000000000000000000000000000000000000000000000000000000000000000081565b60015481565b7f000000000000000000000000000000000000000000000000000000000000000081565b60026020528060005260406000206000915090508060000154908060010154908060020160009054906101000a900473ffffffffffffffffffffffffffffffffffffffff16908060030154908060040154908060050160009054906101000a900473ffffffffffffffffffffffffffffffffffffffff16908060050160149054906101000a900460ff16908060050160159054906101000a900460ff16908060050160169054906101000a900460ff16905089565b600060647f000000000000000000000000000000000000000000000000000000000000000060646104a1919061105b565b60026000858152602001908152602001600020600401546104c291906110e2565b6104cc91906110b1565b9050919050565b60006002600083815260200190815260200160002090506000821180156104fc57506001548211155b61053b576040517f08c379a000000000000000000000000000000000000000000000000000000000815260040161053290610f0b565b60405180910390fd5b8060050160159054906101000a900460ff161561058d576040517f08c379a000000000000000000000000000000000000000000000000000000000815260040161058490610f2b565b60405180910390fd5b60018160050160156101000a81548160ff0219169083151502179055505050565b600260005414156105f4576040517f08c379a00000000000000000000000000000000000000000000000000000000081526004016105eb90610f4b565b60405180910390fd5b6002600081905550600061060783610470565b9050600060026000858152602001908152602001600020905060008411801561063257506001548411155b610671576040517f08c379a000000000000000000000000000000000000000000000000000000000815260040161066890610f0b565b60405180910390fd5b600034116106b4576040517f08c379a00000000000000000000000000000000000000000000000000000000081526004016106ab90610eeb565b60405180910390fd5b8060050160149054906101000a900460ff1615610706576040517f08c379a00000000000000000000000000000000000000000000000000000000081526004016106fd90610e8b565b60405180910390fd5b8281600101600082825461071a919061113c565b92505081905550826003600086815260200190815260200160002060003373ffffffffffffffffffffffffffffffffffffffff1673ffffffffffffffffffffffffffffffffffffffff1681526020019081526020016000208190555060008160010154116108855760018160050160146101000a81548160ff0219169083151502179055508060050160009054906101000a900473ffffffffffffffffffffffffffffffffffffffff1673ffffffffffffffffffffffffffffffffffffffff166108fc82600401549081150290604051600060405180830381858888f1935050505015801561080d573d6000803e3d6000fd5b507f000000000000000000000000000000000000000000000000000000000000000073ffffffffffffffffffffffffffffffffffffffff166108fc826004015484610858919061113c565b9081150290604051600060405180830381858888f19350505050158015610883573d6000803e3d6000fd5b505b505060016000819055505050565b600260005414156108d9576040517f08c379a00000000000000000000000000000000000000000000000000000000081526004016108d090610f4b565b60405180910390fd5b600260008190555060008111610924576040517f08c379a000000000000000000000000000000000000000000000000000000000815260040161091b90610eab565b60405180910390fd5b6001600081548092919061093790611200565b91905055508273ffffffffffffffffffffffffffffffffffffffff166323b872dd3330856040518463ffffffff1660e01b815260040161097993929190610e54565b600060405180830381600087803b15801561099357600080fd5b505af11580156109a7573d6000803e3d6000fd5b505050506040518061012001604052806001548152602001606481526020018473ffffffffffffffffffffffffffffffffffffffff1681526020018381526020018281526020013373ffffffffffffffffffffffffffffffffffffffff16815260200160001515815260200160001515815260200160001515815250600260006001548152602001908152602001600020600082015181600001556020820151816001015560408201518160020160006101000a81548173ffffffffffffffffffffffffffffffffffffffff021916908373ffffffffffffffffffffffffffffffffffffffff160217905550606082015181600301556080820151816004015560a08201518160050160006101000a81548173ffffffffffffffffffffffffffffffffffffffff021916908373ffffffffffffffffffffffffffffffffffffffff16021790555060c08201518160050160146101000a81548160ff02191690831515021790555060e08201518160050160156101000a81548160ff0219169083151502179055506101008201518160050160166101000a81548160ff0219169083151502179055509050503373ffffffffffffffffffffffffffffffffffffffff168373ffffffffffffffffffffffffffffffffffffffff167f655a0cf9c8db81512be9a76dc1c5ae5380b8816ce6ad659cd61b715e2999d59a6001548585604051610bb593929190611013565b60405180910390a36001600081905550505050565b600081359050610bd9816113ec565b92915050565b600081359050610bee81611403565b92915050565b600081359050610c038161141a565b92915050565b600080600060608486031215610c1e57600080fd5b6000610c2c86828701610bdf565b9350506020610c3d86828701610bf4565b9250506040610c4e86828701610bf4565b9150509250925092565b600060208284031215610c6a57600080fd5b6000610c7884828501610bf4565b91505092915050565b60008060408385031215610c9457600080fd5b6000610ca285828601610bf4565b9250506020610cb385828601610bca565b9150509250929050565b60008060408385031215610cd057600080fd5b6000610cde85828601610bf4565b9250506020610cef85828601610bf4565b9150509250929050565b610d0281611182565b82525050565b610d1181611170565b82525050565b610d2081611194565b82525050565b610d2f816111dc565b82525050565b6000610d4260118361104a565b9150610d4d826112a7565b602082019050919050565b6000610d65601f8361104a565b9150610d70826112d0565b602082019050919050565b6000610d8860168361104a565b9150610d93826112f9565b602082019050919050565b6000610dab60338361104a565b9150610db682611322565b604082019050919050565b6000610dce60128361104a565b9150610dd982611371565b602082019050919050565b6000610df160188361104a565b9150610dfc8261139a565b602082019050919050565b6000610e14601f8361104a565b9150610e1f826113c3565b602082019050919050565b610e33816111d2565b82525050565b6000602082019050610e4e6000830184610cf9565b92915050565b6000606082019050610e696000830186610d08565b610e766020830185610d08565b610e836040830184610e2a565b949350505050565b60006020820190508181036000830152610ea481610d35565b9050919050565b60006020820190508181036000830152610ec481610d58565b9050919050565b60006020820190508181036000830152610ee481610d7b565b9050919050565b60006020820190508181036000830152610f0481610d9e565b9050919050565b60006020820190508181036000830152610f2481610dc1565b9050919050565b60006020820190508181036000830152610f4481610de4565b9050919050565b60006020820190508181036000830152610f6481610e07565b9050919050565b6000602082019050610f806000830184610e2a565b92915050565b600061012082019050610f9c600083018c610e2a565b610fa9602083018b610e2a565b610fb6604083018a610d26565b610fc36060830189610e2a565b610fd06080830188610e2a565b610fdd60a0830187610cf9565b610fea60c0830186610d17565b610ff760e0830185610d17565b611005610100830184610d17565b9a9950505050505050505050565b60006060820190506110286000830186610e2a565b6110356020830185610e2a565b6110426040830184610e2a565b949350505050565b600082825260208201905092915050565b6000611066826111d2565b9150611071836111d2565b9250827fffffffffffffffffffffffffffffffffffffffffffffffffffffffffffffffff038211156110a6576110a5611249565b5b828201905092915050565b60006110bc826111d2565b91506110c7836111d2565b9250826110d7576110d6611278565b5b828204905092915050565b60006110ed826111d2565b91506110f8836111d2565b9250817fffffffffffffffffffffffffffffffffffffffffffffffffffffffffffffffff048311821515161561113157611130611249565b5b828202905092915050565b6000611147826111d2565b9150611152836111d2565b92508282101561116557611164611249565b5b828203905092915050565b600061117b826111b2565b9050919050565b600061118d826111b2565b9050919050565b60008115159050919050565b60006111ab82611170565b9050919050565b600073ffffffffffffffffffffffffffffffffffffffff82169050919050565b6000819050919050565b60006111e7826111ee565b9050919050565b60006111f9826111b2565b9050919050565b600061120b826111d2565b91507fffffffffffffffffffffffffffffffffffffffffffffffffffffffffffffffff82141561123e5761123d611249565b5b600182019050919050565b7f4e487b7100000000000000000000000000000000000000000000000000000000600052601160045260246000fd5b7f4e487b7100000000000000000000000000000000000000000000000000000000600052601260045260246000fd5b7f6974656d20616c726561647920736f6c64000000000000000000000000000000600082015250565b7f5072696365206d7573742062652067726561746572207468616e207a65726f00600082015250565b7f6974656d20697320616c72656164792062616e6e656400000000000000000000600082015250565b7f6e6f7420656e6f75676820657468657220746f20636f766572206974656d207060008201527f7269636520616e64206d61726b65742066656500000000000000000000000000602082015250565b7f6974656d20646f65736e27742065786973740000000000000000000000000000600082015250565b7f6974656d20697320616c726561647920617070726f7665640000000000000000600082015250565b7f5265656e7472616e637947756172643a207265656e7472616e742063616c6c00600082015250565b6113f581611170565b811461140057600080fd5b50565b61140c816111a0565b811461141757600080fd5b50565b611423816111d2565b811461142e57600080fd5b5056fea2646970667358221220b612f2de299995ab55256f9b069bdcf605cc8b2b652d12e23003924cdd02eb0264736f6c63430008040033",
  "linkReferences": {},
  "deployedLinkReferences": {}
}