{
  "_format": "hh-sol-artifact-1",
  "contractName": "Marketplace",
  "sourceName": "src/backend/contracts/Marketplace.sol",
  "abi": [
    {
      "inputs": [
        {
          "internalType": "uint256",
          "name": "_feePercent",
          "type": "uint256"
        }
      ],
      "stateMutability": "nonpayable",
      "type": "constructor"
    },
    {
      "anonymous": false,
      "inputs": [
        {
          "indexed": false,
          "internalType": "uint256",
          "name": "itemId",
          "type": "uint256"
        },
        {
          "indexed": true,
          "internalType": "address",
          "name": "nft",
          "type": "address"
        },
        {
          "indexed": false,
          "internalType": "uint256",
          "name": "tokenId",
          "type": "uint256"
        },
        {
          "indexed": false,
          "internalType": "uint256",
          "name": "price",
          "type": "uint256"
        },
        {
          "indexed": true,
          "internalType": "address",
          "name": "seller",
          "type": "address"
        },
        {
          "indexed": true,
          "internalType": "address",
          "name": "buyer",
          "type": "address"
        }
      ],
      "name": "Bought",
      "type": "event"
    },
    {
      "anonymous": false,
      "inputs": [
        {
          "indexed": false,
          "internalType": "uint256",
          "name": "itemId",
          "type": "uint256"
        },
        {
          "indexed": true,
          "internalType": "address",
          "name": "nft",
          "type": "address"
        },
        {
          "indexed": false,
          "internalType": "uint256",
          "name": "tokenId",
          "type": "uint256"
        },
        {
          "indexed": false,
          "internalType": "uint256",
          "name": "price",
          "type": "uint256"
        },
        {
          "indexed": true,
          "internalType": "address",
          "name": "seller",
          "type": "address"
        }
      ],
      "name": "Offered",
      "type": "event"
    },
    {
      "inputs": [
        {
          "internalType": "uint256",
          "name": "_itemId",
          "type": "uint256"
        }
      ],
      "name": "approveItem",
      "outputs": [],
      "stateMutability": "nonpayable",
      "type": "function"
    },
    {
      "inputs": [],
      "name": "feeAccount",
      "outputs": [
        {
          "internalType": "address payable",
          "name": "",
          "type": "address"
        }
      ],
      "stateMutability": "view",
      "type": "function"
    },
    {
      "inputs": [],
      "name": "feePercent",
      "outputs": [
        {
          "internalType": "uint256",
          "name": "",
          "type": "uint256"
        }
      ],
      "stateMutability": "view",
      "type": "function"
    },
    {
      "inputs": [
        {
          "internalType": "uint256",
          "name": "_itemId",
          "type": "uint256"
        }
      ],
      "name": "getTotalPrice",
      "outputs": [
        {
          "internalType": "uint256",
          "name": "",
          "type": "uint256"
        }
      ],
      "stateMutability": "view",
      "type": "function"
    },
    {
      "inputs": [],
      "name": "itemCount",
      "outputs": [
        {
          "internalType": "uint256",
          "name": "",
          "type": "uint256"
        }
      ],
      "stateMutability": "view",
      "type": "function"
    },
    {
      "inputs": [
        {
          "internalType": "uint256",
          "name": "",
          "type": "uint256"
        }
      ],
      "name": "items",
      "outputs": [
        {
          "internalType": "uint256",
          "name": "itemId",
          "type": "uint256"
        },
        {
          "internalType": "contract IERC721",
          "name": "nft",
          "type": "address"
        },
        {
          "internalType": "uint256",
          "name": "tokenId",
          "type": "uint256"
        },
        {
          "internalType": "uint256",
          "name": "price",
          "type": "uint256"
        },
        {
          "internalType": "address payable",
          "name": "seller",
          "type": "address"
        },
        {
          "internalType": "bool",
          "name": "sold",
          "type": "bool"
        },
        {
          "internalType": "bool",
          "name": "approved",
          "type": "bool"
        }
      ],
      "stateMutability": "view",
      "type": "function"
    },
    {
      "inputs": [
        {
          "internalType": "contract IERC721",
          "name": "_nft",
          "type": "address"
        },
        {
          "internalType": "uint256",
          "name": "_tokenId",
          "type": "uint256"
        },
        {
          "internalType": "uint256",
          "name": "_price",
          "type": "uint256"
        }
      ],
      "name": "makeItem",
      "outputs": [],
      "stateMutability": "nonpayable",
      "type": "function"
    },
    {
      "inputs": [
        {
          "internalType": "uint256",
          "name": "_itemId",
          "type": "uint256"
        }
      ],
      "name": "purchaseItem",
      "outputs": [],
      "stateMutability": "payable",
      "type": "function"
    }
  ],
  "bytecode": "0x60c060405234801561001057600080fd5b5060405161136338038061136383398181016040528101906100329190610094565b60016000819055503373ffffffffffffffffffffffffffffffffffffffff1660808173ffffffffffffffffffffffffffffffffffffffff1660601b815250508060a08181525050506100de565b60008151905061008e816100c7565b92915050565b6000602082840312156100a657600080fd5b60006100b48482850161007f565b91505092915050565b6000819050919050565b6100d0816100bd565b81146100db57600080fd5b50565b60805160601c60a05161124f6101146000396000818161021b01526102df0152600081816101f101526105e0015261124f6000f3fe60806040526004361061007b5760003560e01c8063ca7dd3751161004e578063ca7dd37514610144578063d283c85014610181578063d38ea5bf146101aa578063fa00afc7146101c65761007b565b806365e17c9d146100805780636bfb0d01146100ab5780637fd6f15c146100d6578063bfb231d214610101575b600080fd5b34801561008c57600080fd5b506100956101ef565b6040516100a29190610c9f565b60405180910390f35b3480156100b757600080fd5b506100c0610213565b6040516100cd9190610db1565b60405180910390f35b3480156100e257600080fd5b506100eb610219565b6040516100f89190610db1565b60405180910390f35b34801561010d57600080fd5b5061012860048036038101906101239190610b59565b61023d565b60405161013b9796959493929190610dcc565b60405180910390f35b34801561015057600080fd5b5061016b60048036038101906101669190610b59565b6102d9565b6040516101789190610db1565b60405180910390f35b34801561018d57600080fd5b506101a860048036038101906101a39190610b59565b61033c565b005b6101c460048036038101906101bf9190610b59565b610417565b005b3480156101d257600080fd5b506101ed60048036038101906101e89190610b0a565b6107e5565b005b7f000000000000000000000000000000000000000000000000000000000000000081565b60015481565b7f000000000000000000000000000000000000000000000000000000000000000081565b60026020528060005260406000206000915090508060000154908060010160009054906101000a900473ffffffffffffffffffffffffffffffffffffffff16908060020154908060030154908060040160009054906101000a900473ffffffffffffffffffffffffffffffffffffffff16908060040160149054906101000a900460ff16908060040160159054906101000a900460ff16905087565b600060647f0000000000000000000000000000000000000000000000000000000000000000606461030a9190610e83565b600260008581526020019081526020016000206003015461032b9190610f0a565b6103359190610ed9565b9050919050565b600060026000838152602001908152602001600020905060008211801561036557506001548211155b6103a4576040517f08c379a000000000000000000000000000000000000000000000000000000000815260040161039b90610d51565b60405180910390fd5b8060040160159054906101000a900460ff16156103f6576040517f08c379a00000000000000000000000000000000000000000000000000000000081526004016103ed90610d71565b60405180910390fd5b60018160040160156101000a81548160ff0219169083151502179055505050565b6002600054141561045d576040517f08c379a000000000000000000000000000000000000000000000000000000000815260040161045490610d91565b60405180910390fd5b60026000819055506000610470826102d9565b9050600060026000848152602001908152602001600020905060008311801561049b57506001548311155b6104da576040517f08c379a00000000000000000000000000000000000000000000000000000000081526004016104d190610d51565b60405180910390fd5b8134101561051d576040517f08c379a000000000000000000000000000000000000000000000000000000000815260040161051490610d31565b60405180910390fd5b8060040160149054906101000a900460ff161561056f576040517f08c379a000000000000000000000000000000000000000000000000000000000815260040161056690610cf1565b60405180910390fd5b8060040160009054906101000a900473ffffffffffffffffffffffffffffffffffffffff1673ffffffffffffffffffffffffffffffffffffffff166108fc82600301549081150290604051600060405180830381858888f193505050501580156105dd573d6000803e3d6000fd5b507f000000000000000000000000000000000000000000000000000000000000000073ffffffffffffffffffffffffffffffffffffffff166108fc8260030154846106289190610f64565b9081150290604051600060405180830381858888f19350505050158015610653573d6000803e3d6000fd5b5060018160040160146101000a81548160ff0219169083151502179055508060010160009054906101000a900473ffffffffffffffffffffffffffffffffffffffff1673ffffffffffffffffffffffffffffffffffffffff166323b872dd303384600201546040518463ffffffff1660e01b81526004016106d693929190610cba565b600060405180830381600087803b1580156106f057600080fd5b505af1158015610704573d6000803e3d6000fd5b505050503373ffffffffffffffffffffffffffffffffffffffff168160040160009054906101000a900473ffffffffffffffffffffffffffffffffffffffff1673ffffffffffffffffffffffffffffffffffffffff168260010160009054906101000a900473ffffffffffffffffffffffffffffffffffffffff1673ffffffffffffffffffffffffffffffffffffffff167f8b4c9c8a607d67b321582dd8461041b1dc2ceeca70c8b7f37f8e02095cf2e76d86856002015486600301546040516107d093929190610e3b565b60405180910390a45050600160008190555050565b6002600054141561082b576040517f08c379a000000000000000000000000000000000000000000000000000000000815260040161082290610d91565b60405180910390fd5b600260008190555060008111610876576040517f08c379a000000000000000000000000000000000000000000000000000000000815260040161086d90610d11565b60405180910390fd5b6001600081548092919061088990611028565b91905055508273ffffffffffffffffffffffffffffffffffffffff166323b872dd3330856040518463ffffffff1660e01b81526004016108cb93929190610cba565b600060405180830381600087803b1580156108e557600080fd5b505af11580156108f9573d6000803e3d6000fd5b505050506040518060e0016040528060015481526020018473ffffffffffffffffffffffffffffffffffffffff1681526020018381526020018281526020013373ffffffffffffffffffffffffffffffffffffffff168152602001600015158152602001600015158152506002600060015481526020019081526020016000206000820151816000015560208201518160010160006101000a81548173ffffffffffffffffffffffffffffffffffffffff021916908373ffffffffffffffffffffffffffffffffffffffff160217905550604082015181600201556060820151816003015560808201518160040160006101000a81548173ffffffffffffffffffffffffffffffffffffffff021916908373ffffffffffffffffffffffffffffffffffffffff16021790555060a08201518160040160146101000a81548160ff02191690831515021790555060c08201518160040160156101000a81548160ff0219169083151502179055509050503373ffffffffffffffffffffffffffffffffffffffff168373ffffffffffffffffffffffffffffffffffffffff167f655a0cf9c8db81512be9a76dc1c5ae5380b8816ce6ad659cd61b715e2999d59a6001548585604051610acb93929190610e3b565b60405180910390a36001600081905550505050565b600081359050610aef816111eb565b92915050565b600081359050610b0481611202565b92915050565b600080600060608486031215610b1f57600080fd5b6000610b2d86828701610ae0565b9350506020610b3e86828701610af5565b9250506040610b4f86828701610af5565b9150509250925092565b600060208284031215610b6b57600080fd5b6000610b7984828501610af5565b91505092915050565b610b8b81610faa565b82525050565b610b9a81610f98565b82525050565b610ba981610fbc565b82525050565b610bb881611004565b82525050565b6000610bcb601183610e72565b9150610bd6826110cf565b602082019050919050565b6000610bee601f83610e72565b9150610bf9826110f8565b602082019050919050565b6000610c11603383610e72565b9150610c1c82611121565b604082019050919050565b6000610c34601283610e72565b9150610c3f82611170565b602082019050919050565b6000610c57601883610e72565b9150610c6282611199565b602082019050919050565b6000610c7a601f83610e72565b9150610c85826111c2565b602082019050919050565b610c9981610ffa565b82525050565b6000602082019050610cb46000830184610b82565b92915050565b6000606082019050610ccf6000830186610b91565b610cdc6020830185610b91565b610ce96040830184610c90565b949350505050565b60006020820190508181036000830152610d0a81610bbe565b9050919050565b60006020820190508181036000830152610d2a81610be1565b9050919050565b60006020820190508181036000830152610d4a81610c04565b9050919050565b60006020820190508181036000830152610d6a81610c27565b9050919050565b60006020820190508181036000830152610d8a81610c4a565b9050919050565b60006020820190508181036000830152610daa81610c6d565b9050919050565b6000602082019050610dc66000830184610c90565b92915050565b600060e082019050610de1600083018a610c90565b610dee6020830189610baf565b610dfb6040830188610c90565b610e086060830187610c90565b610e156080830186610b82565b610e2260a0830185610ba0565b610e2f60c0830184610ba0565b98975050505050505050565b6000606082019050610e506000830186610c90565b610e5d6020830185610c90565b610e6a6040830184610c90565b949350505050565b600082825260208201905092915050565b6000610e8e82610ffa565b9150610e9983610ffa565b9250827fffffffffffffffffffffffffffffffffffffffffffffffffffffffffffffffff03821115610ece57610ecd611071565b5b828201905092915050565b6000610ee482610ffa565b9150610eef83610ffa565b925082610eff57610efe6110a0565b5b828204905092915050565b6000610f1582610ffa565b9150610f2083610ffa565b9250817fffffffffffffffffffffffffffffffffffffffffffffffffffffffffffffffff0483118215151615610f5957610f58611071565b5b828202905092915050565b6000610f6f82610ffa565b9150610f7a83610ffa565b925082821015610f8d57610f8c611071565b5b828203905092915050565b6000610fa382610fda565b9050919050565b6000610fb582610fda565b9050919050565b60008115159050919050565b6000610fd382610f98565b9050919050565b600073ffffffffffffffffffffffffffffffffffffffff82169050919050565b6000819050919050565b600061100f82611016565b9050919050565b600061102182610fda565b9050919050565b600061103382610ffa565b91507fffffffffffffffffffffffffffffffffffffffffffffffffffffffffffffffff82141561106657611065611071565b5b600182019050919050565b7f4e487b7100000000000000000000000000000000000000000000000000000000600052601160045260246000fd5b7f4e487b7100000000000000000000000000000000000000000000000000000000600052601260045260246000fd5b7f6974656d20616c726561647920736f6c64000000000000000000000000000000600082015250565b7f5072696365206d7573742062652067726561746572207468616e207a65726f00600082015250565b7f6e6f7420656e6f75676820657468657220746f20636f766572206974656d207060008201527f7269636520616e64206d61726b65742066656500000000000000000000000000602082015250565b7f6974656d20646f65736e27742065786973740000000000000000000000000000600082015250565b7f6974656d20697320616c726561647920617070726f7665640000000000000000600082015250565b7f5265656e7472616e637947756172643a207265656e7472616e742063616c6c00600082015250565b6111f481610fc8565b81146111ff57600080fd5b50565b61120b81610ffa565b811461121657600080fd5b5056fea2646970667358221220dcd6b9c500401ae464e270d03734081b722ab9201535e5a15a55d99bf882941364736f6c63430008040033",
  "linkReferences": {},
  "deployedLinkReferences": {}
}